:100000000C942D000C9443060C9443060C94430668
:100010000C9443060C9443060C9443060C9443063C
:100020000C9443060C9443060C9443060C9443062C
:100030000C9443060C9443060C9443060C9443061C
:100040000C9443060C9443060C9443060C9443060C
:100050000C94430600600068800011241FBECFE5A9
:10006000D8E0DEBFCDBFE4E5F0E040E017C0B591D9
:10007000A59135912591059107FD0CC0959185912C
:10008000EF01F92FE82F05900D92A217B307D9F7CA
:10009000FE0104C01D92A217B307E1F7E935F4078A
:0E00A00031F70E943E060C942806F894FFCF1C
:1000AE00456C656374726F6E696320566F74696E0A
:1000BE0067004D616368696E6500413D00423D0019
:0600CE00433D00443D002B
:1000D4002F923F924F925F926F927F928F929F9254
:1000E400AF92BF92CF92DF92EF92FF920F931F9342
:1000F400CF93DF93CDB7DEB76B970FB6F894DEBF1F
:100104000FBECDBF2D8B3E8B942E852E6F8B788F9B
:10011400382E292EA0E00E941C06ACF48DE20E9429
:10012400D4032D893E89492D582D6F89788D832DCF
:10013400922D0E94FE052D8B3E8B942E852E6F8B67
:10014400788F382E292EED895E88492C898E8F89E7
:100154008A8F888D8B8FB32DF22D612C712C20C04A
:100164008FEF681A780A0F2EFAE0AF2EF02DB12C1B
:10017400C12CD12CE12CF12C00E010E02E2F352DD8
:10018400442D598D6A8D7B8D8B2F9F2F0E9447059F
:10019400E22F532E442E598F6A8F7B8FB82FF92F5D
:1001A4002E2F352D442D598D6A8D7B8D8B2F9F2FAE
:1001B400A0E00E941C06A1F62D893E89492D582DE8
:1001C4006F89788D832D922D0E941C0621F480E383
:1001D4000E94D4034BC0230181E0481A510832C065
:1001E4000F2EFAE0AF2EF02DB12CC12CD12CE12C26
:1001F400F12C00E010E02D893E89492D582D6F899E
:10020400788D832D922D0E944505E1E0F0E0EC0FFE
:10021400FD1FE40DF51D205D20832D893E89492DA8
:10022400582D6F89788D832D922D0E9447052D8B33
:100234003E8B942E852E6F8B788F382E292E81E05D
:10024400481A5108552064F6812C912C0CC0E1E029
:10025400F0E0EC0FFD1FE80DF91D80810E94D4032E
:100264008FEF881A980A8614970488F381E06B96B6
:100274000FB6F894DEBF0FBECDBFDF91CF911F91B3
:100284000F91FF90EF90DF90CF90BF90AF909F9031
:100294008F907F906F905F904F903F902F90089534
:1002A40043E650E063E083E00E948F0440E650E0C0
:1002B40065E083E00E948F0442E650E066E083E05C
:1002C4000E948F0441E650E067E083E00E948F04BF
:1002D400809163008130F9F4809167008F5F80938F
:1002E400670063E082E00E9476052091670030E0B9
:1002F40040E050E060E070E080E090E00E946A003E
:100304002FEF83ED90E3215080409040E1F700C04F
:10031400000081E00895809160008130F9F48091BB
:1003240066008F5F809366006CE082E00E94760531
:100334002091660030E040E050E060E070E080E052
:1003440090E00E946A002FEF83ED90E321508040FB
:100354009040E1F700C0000081E0089580916200C0
:100364008130F9F4809165008F5F8093650063E0CC
:1003740083E00E9476052091650030E040E050E083
:1003840060E070E080E090E00E946A002FEF83ED6F
:1003940090E3215080409040E1F700C0000081E0EC
:1003A4000895809161008130F9F4809164008F5F39
:1003B400809364006CE083E00E94760520916400E1
:1003C40030E040E050E060E070E080E090E00E94C7
:1003D4006A002FEF83ED90E3215080409040E1F7D5
:0C03E40000C0000081E0089580E0089552
:1003F000442319F04130E9F174C0813099F028F0BC
:100400008230E9F0833041F16EC02AB381E090E0A0
:1004100002C0880F991F6A95E2F7809582238ABBF4
:1004200081E0089527B381E090E002C0880F991F12
:100430006A95E2F78095822387BB81E0089524B313
:1004400081E090E002C0880F991F6A95E2F78095DD
:10045000822384BB81E0089521B381E090E002C053
:10046000880F991F6A95E2F78095822381BB81E00E
:100470000895813091F028F08230D9F0833029F14D
:1004800034C02AB381E090E002C0880F991F6A95BA
:10049000E2F7822B8ABB81E0089527B381E090E0E8
:1004A00002C0880F991F6A95E2F7822B87BB81E013
:1004B000089524B381E090E002C0880F991F6A95E7
:1004C000E2F7822B84BB81E0089521B381E090E0C4
:1004D00002C0880F991F6A95E2F7822B81BB81E0E9
:0E04E000089581E0089580E0089580E0089579
:1004EE00442319F04130E9F174C0813099F028F0BD
:1004FE008230E9F0833041F16EC02BB381E090E0A1
:10050E0002C0880F991F6A95E2F7809582238BBBF4
:10051E0081E0089528B381E090E002C0880F991F12
:10052E006A95E2F78095822388BB81E0089525B312
:10053E0081E090E002C0880F991F6A95E2F78095DE
:10054E00822385BB81E0089522B381E090E002C052
:10055E00880F991F6A95E2F78095822382BB81E00E
:10056E000895813091F028F08230D9F0833029F14E
:10057E0034C02BB381E090E002C0880F991F6A95BA
:10058E00E2F7822B8BBB81E0089528B381E090E0E7
:10059E0002C0880F991F6A95E2F7822B88BB81E013
:1005AE00089525B381E090E002C0880F991F6A95E7
:1005BE00E2F7822B85BB81E0089522B381E090E0C3
:1005CE0002C0880F991F6A95E2F7822B82BB81E0E9
:0E05DE00089581E0089580E0089580E008957A
:1005EC0061E080E00E9476056EEA70E080E00E9497
:1005FC00D10566E081E00E94760560EC70E080E059
:10060C000E94D10561E082E00E94760568EC70E002
:10061C0080E00E94D10563E082E00E947605209183
:10062C00670030E040E050E060E070E080E090E097
:10063C000E946A006AE082E00E9476056BEC70E032
:10064C0080E00E94D1056CE082E00E94760520914A
:10065C00660030E040E050E060E070E080E090E068
:10066C000E946A0061E083E00E9476056EEC70E007
:10067C0080E00E94D10563E083E00E947605209122
:10068C00650030E040E050E060E070E080E090E039
:10069C000E946A006AE083E00E94760561ED70E0DA
:1006AC0080E00E94D1056CE083E00E9476052091E9
:1006BC00640030E040E050E060E070E080E090E00A
:0806CC000E946A0081E008951C
:1006D400CF93C82F482F441F4427441F64E081E070
:1006E4000E947702C6FB442740F962E081E00E9441
:1006F4007702C5FB442740F961E081E00E9477025C
:10070400C4FB442740F960E081E00E94770240E0A6
:1007140063E080E00E94770241E062E080E00E94B2
:10072400770285E08A95F1F7000040E062E080E01E
:100734000E9477028FE193E00197F1F700C0000077
:10074400C3FB442740F964E081E00E947702C2FBC6
:10075400442740F962E081E00E947702C1FB44270C
:1007640040F961E081E00E9477024C2F417060E023
:1007740081E00E94770241E062E080E00E9477021B
:1007840095E09A95F1F7000040E062E080E00E9475
:1007940077028FE39FE10197F1F700C0000081E049
:0407A400CF91089554
:1007A800CF93C82F482F441F4427441F64E081E09B
:1007B8000E947702C6FB442740F962E081E00E946C
:1007C8007702C5FB442740F961E081E00E94770287
:1007D800C4FB442740F960E081E00E94770241E0D1
:1007E80063E080E00E94770241E062E080E00E94DE
:1007F800770285E08A95F1F7000040E062E080E04A
:100808000E9477028FE193E00197F1F700C00000A2
:10081800C3FB442740F964E081E00E947702C2FBF1
:10082800442740F962E081E00E947702C1FB442737
:1008380040F961E081E00E9477024C2F417060E04E
:1008480081E00E94770241E062E080E00E94770246
:1008580095E09A95F1F7000040E062E080E00E94A0
:1008680077028FE39FE10197F1F700C0000081E074
:04087800CF9108957F
:10087C0088249924F401E401B0E49F93AA279A15E3
:10088C008B049C04ED05FE05CF05D007A10798F459
:10089C00AD2FDC2FCF2FFE2FE92D982C892E982FE2
:1008AC00872F762F652F542F432F322F2227B850A6
:1008BC0031F7BF9127C01B2EBF91BB27220F331FCF
:1008CC00441F551F661F771F881F991F881C991C72
:1008DC00EE1FFF1FCC1FDD1FAA1FBB1F8A149B041A
:1008EC00EC05FD05CE05DF05A007B10748F08A1819
:1008FC009B08EC09FD09CE09DF09A00BB10B2160A7
:10090C001A94E1F62EF49401AF01BE01CD01000C56
:02091C0008953C
:10091E00EF92FF920F931F93CF93DF930F92CDB76A
:10092E00DEB7182F062F7A01AE014F5F5F4F0E9480
:10093E000B0580E008C0AE014F5F5F4F602F812F27
:10094E000E940B0581E099819923A9F32FEF36E7D9
:10095E0091E0215030409040E1F700C0000008C007
:10096E00AE014F5F5F4F602F812F0E940B0581E01C
:10097E0099819923A9F3F701808381E00F90DF918C
:0C098E00CF911F910F91FF90EF90089502
:10099A0041E060E081E00E94F80141E061E081E02D
:1009AA000E94F80141E062E081E00E94F80141E022
:1009BA0064E081E00E94F80141E063E080E00E9487
:1009CA00F80141E062E080E00E94F8012FEF89EF30
:1009DA0090E0215080409040E1F700C0000083E39E
:1009EA000E946A0382E30E946A0388E20E946A0301
:1009FA0081E00E946A038CE00E946A038FE39CE90B
:0C0A0A000197F1F700C0000081E00895A2
:100A1600813091F028F08230D9F0833029F130C04E
:100A260089B390E002C0959587956A95E2F7817043
:100A3600FA01808381E0089586B390E002C095951F
:100A460087956A95E2F78170FA01808381E00895BF
:100A560083B390E002C0959587956A95E2F7817019
:100A6600FA01808381E0089580B390E002C09595F5
:100A760087956A95E2F78170FA01808381E008958F
:040A860080E008956F
:100A8A00689401C0E894F92FF12B12F00C94110626
:100A9A00A0E0B0E0E3E5F5E00C94A005092E05948A
:100AAA0022F40E94FE05112392F4F0E80F26FFEFCC
:100ABA00E094F09400951095B094C094D094A194C9
:100ACA00BF0ACF0ADF0AEF0AFF0A0F0B1F0B0E94A9
:100ADA003E0407FC0E94FE05CDB7DEB7ECE00C949D
:020AEA00BC0549
:100AEC00CF936431E8F4813091F028F0823031F00A
:100AFC00833039F009C080E0C1E00BC084E1C1E073
:100B0C0008C084E5C1E005C080E0C0E002C080E41C
:100B1C00C1E0C13031F4860F80580E946A0301C0D5
:080B2C00C0E08C2FCF91089569
:100B34002F923F924F925F926F927F928F929F92E9
:100B4400AF92BF92CF92DF92EF92FF920F931F93D7
:100B5400CF93DF93CDB7DEB7CA1BDB0B0FB6F89488
:080B6400DEBF0FBECDBF0994F6
:100B6C002A88398848885F846E847D848C849B8431
:100B7C00AA84B984C884DF80EE80FD800C811B813F
:100B8C00AA81B981CE0FD11D0FB6F894DEBF0FBE6E
:060B9C00CDBFED0108953C
:100BA200CF92DF92EF926B01E82E06C00E94D4032F
:100BB2008FEFC81AD80AE80AF6018491E7FC80810F
:0E0BC2008111F4CF81E0EF90DF90CF90089585
:100BD0000E94CD0463E083E00E94390665E083E073
:100BE0000E94390666E083E00E94390667E083E0F0
:0C0BF0000E9439060E94CD0481E00895A7
:100BFC006095709580959095309540955095219580
:100C0C003F4F4F4F5F4F6F4F7F4F8F4F9F4F089509
:100C1C00689401C0E8948F929F92CF93DF930E94C7
:0C0C2C003E04DF91CF919F908F900895BF
:100C38000024A7FD00942A173005400550056005DB
:080C4800700580059005089578
:100C5000EC010E9448060E944706CE010E94490608
:060C6000CE010E944506D2
:0C0C66000E94F6020E94520181E00895F5
:0A0C720040E00E94F80181E00895BF
:0A0C7C000E94E8050E943306FDCF38
:040C86000C940000CA
:040C8A000E9455006F
:020C8E000895C7
:020C90000895C5
:020C92000895C3
:00000001FF
