:100000000C942D000C9466060C9466060C946606FF
:100010000C9466060C9466060C9466060C946606B0
:100020000C9466060C9466060C9466060C946606A0
:100030000C9466060C9466060C9466060C94660690
:100040000C9466060C9466060C9466060C94660680
:100050000C94660600600068800011241FBECFE586
:10006000D8E0DEBFCDBFE4E5F0E040E017C0B591D9
:10007000A59135912591059107FD0CC0959185912C
:10008000EF01F92FE82F05900D92A217B307D9F7CA
:10009000FE0104C01D92A217B307E1F7E935F4078A
:0E00A00031F70E9461060C944406F894FFCFDD
:1000AE00456C656374726F6E696320566F74696E0A
:1000BE0067004D616368696E6500417A7A6120530D
:1000CE006165656400413D00423D00433D00443D95
:0100DE000021
:1000E0002F923F924F925F926F927F928F929F9248
:1000F000AF92BF92CF92DF92EF92FF920F931F9336
:10010000CF93DF93CDB7DEB76B970FB6F894DEBF12
:100110000FBECDBF2D8B3E8B942E852E6F8B788F8F
:10012000382E292EA0E00E943806ACF48DE20E9401
:1001300066032D893E89492D582D6F89788D832D31
:10014000922D0E941A062D8B3E8B942E852E6F8B3E
:10015000788F382E292EED895E88492C898E8F89DB
:100160008A8F888D8B8FB32DF22D612C712C20C03E
:100170008FEF681A780A0F2EFAE0AF2EF02DB12C0F
:10018000C12CD12CE12CF12C00E010E02E2F352DCC
:10019000442D598D6A8D7B8D8B2F9F2F0E943B059F
:1001A000E22F532E442E598F6A8F7B8FB82FF92F51
:1001B0002E2F352D442D598D6A8D7B8D8B2F9F2FA2
:1001C000A0E00E943806A1F62D893E89492D582DC0
:1001D0006F89788D832D922D0E94380621F480E35B
:1001E0000E9466034BC0230181E0481A510832C0C7
:1001F0000F2EFAE0AF2EF02DB12CC12CD12CE12C1A
:10020000F12C00E010E02D893E89492D582D6F8991
:10021000788D832D922D0E943905E1E0F0E0EC0FFE
:10022000FD1FE40DF51D205D20832D893E89492D9C
:10023000582D6F89788D832D922D0E943B052D8B33
:100240003E8B942E852E6F8B788F382E292E81E051
:10025000481A5108552064F6812C912C0CC0E1E01D
:10026000F0E0EC0FFD1FE80DF91D80810E94660390
:100270008FEF881A980A8614970488F381E06B96AA
:100280000FB6F894DEBF0FBECDBFDF91CF911F91A7
:100290000F91FF90EF90DF90CF90BF90AF909F9025
:1002A0008F907F906F905F904F903F902F90089528
:1002B00043E650E063E083E00E94830440E650E0C0
:1002C00065E083E00E94830442E650E066E083E05C
:1002D0000E94830441E650E067E083E00E948304CB
:1002E000809163008130F9F4809167008F5F809383
:1002F000670063E080E00E9492052091670030E093
:1003000040E050E060E070E080E090E00E9470002B
:100310002FEF89EF90E0215080409040E1F700C03E
:10032000000081E00895809160008130F9F48091AF
:1003300066008F5F809366006CE080E00E9492050B
:100340002091660030E040E050E060E070E080E046
:1003500090E00E9470002FEF89EF90E021508040E4
:100360009040E1F700C0000081E0089580916200B4
:100370008130F9F4809165008F5F8093650063E0C0
:1003800082E00E9492052091650030E040E050E05C
:1003900060E070E080E090E00E9470002FEF89EF55
:1003A00090E0215080409040E1F700C0000081E0E3
:1003B0000895809161008130F9F4809164008F5F2D
:1003C000809364006CE082E00E94920520916400BA
:1003D00030E040E050E060E070E080E090E00E94BB
:1003E00070002FEF89EF90E0215080409040E1F7BE
:0C03F00000C0000081E0089580E0089546
:1003FC00442319F04130E9F174C0813099F028F0B0
:10040C008230E9F0833041F16EC02AB381E090E094
:10041C0002C0880F991F6A95E2F7809582238ABBE8
:10042C0081E0089527B381E090E002C0880F991F06
:10043C006A95E2F78095822387BB81E0089524B307
:10044C0081E090E002C0880F991F6A95E2F78095D1
:10045C00822384BB81E0089521B381E090E002C047
:10046C00880F991F6A95E2F78095822381BB81E002
:10047C000895813091F028F08230D9F0833029F141
:10048C0034C02AB381E090E002C0880F991F6A95AE
:10049C00E2F7822B8ABB81E0089527B381E090E0DC
:1004AC0002C0880F991F6A95E2F7822B87BB81E007
:1004BC00089524B381E090E002C0880F991F6A95DB
:1004CC00E2F7822B84BB81E0089521B381E090E0B8
:1004DC0002C0880F991F6A95E2F7822B81BB81E0DD
:0E04EC00089581E0089580E0089580E008956D
:1004FA00442319F04130E9F174C0813099F028F0B1
:10050A008230E9F0833041F16EC02BB381E090E094
:10051A0002C0880F991F6A95E2F7809582238BBBE8
:10052A0081E0089528B381E090E002C0880F991F06
:10053A006A95E2F78095822388BB81E0089525B306
:10054A0081E090E002C0880F991F6A95E2F78095D2
:10055A00822385BB81E0089522B381E090E002C046
:10056A00880F991F6A95E2F78095822382BB81E002
:10057A000895813091F028F08230D9F0833029F142
:10058A0034C02BB381E090E002C0880F991F6A95AE
:10059A00E2F7822B8BBB81E0089528B381E090E0DB
:1005AA0002C0880F991F6A95E2F7822B88BB81E007
:1005BA00089525B381E090E002C0880F991F6A95DB
:1005CA00E2F7822B85BB81E0089522B381E090E0B7
:1005DA0002C0880F991F6A95E2F7822B82BB81E0DD
:0E05EA00089581E0089580E0089580E008956E
:1005F800CF93C82F482F441F4427441F64E081E04D
:100608000E947D02C6FB442740F962E081E00E9417
:100618007D02C5FB442740F961E081E00E947D022C
:10062800C4FB442740F960E081E00E947D0240E07D
:1006380063E080E00E947D0241E062E080E00E9489
:100648007D0285E08A95F1F7000040E062E080E0F5
:100658000E947D028FE193E00197F1F700C000004E
:10066800C3FB442740F964E081E00E947D02C2FB9D
:10067800442740F962E081E00E947D02C1FB4427E3
:1006880040F961E081E00E947D024C2F417060E0FA
:1006980081E00E947D0241E062E080E00E947D02EC
:1006A80095E09A95F1F7000040E062E080E00E9452
:1006B8007D028FE39FE10197F1F700C0000081E020
:0406C800CF91089531
:1006CC00CF93C82F482F441F4427441F64E081E078
:1006DC000E947D02C6FB442740F962E081E00E9443
:1006EC007D02C5FB442740F961E081E00E947D0258
:1006FC00C4FB442740F960E081E00E947D0241E0A8
:10070C0063E080E00E947D0241E062E080E00E94B4
:10071C007D0285E08A95F1F7000040E062E080E020
:10072C000E947D028FE193E00197F1F700C0000079
:10073C00C3FB442740F964E081E00E947D02C2FBC8
:10074C00442740F962E081E00E947D02C1FB44270E
:10075C0040F961E081E00E947D024C2F417060E025
:10076C0081E00E947D0241E062E080E00E947D0217
:10077C0095E09A95F1F7000040E062E080E00E947D
:10078C007D028FE39FE10197F1F700C0000081E04B
:04079C00CF9108955C
:1007A00061E080E00E94920563ED70E080E00E94CD
:1007B000ED0563E080E00E9492052091670030E043
:1007C00040E050E060E070E080E090E00E94700067
:1007D0006AE080E00E94920566ED70E080E00E9491
:1007E000ED056CE080E00E9492052091660030E00B
:1007F00040E050E060E070E080E090E00E94700037
:1008000061E082E00E94920569ED70E080E00E9464
:10081000ED0563E082E00E9492052091650030E0E2
:1008200040E050E060E070E080E090E00E94700006
:100830006AE082E00E9492056CED70E080E00E9428
:10084000ED056CE082E00E9492052091640030E0AA
:1008500040E050E060E070E080E090E00E947000D6
:0408600081E0089596
:1008640088249924F401E401B0E49F93AA279A15FB
:100874008B049C04ED05FE05CF05D007A10798F471
:10088400AD2FDC2FCF2FFE2FE92D982C892E982FFA
:10089400872F762F652F542F432F322F2227B850BE
:1008A40031F7BF9127C01B2EBF91BB27220F331FE7
:1008B400441F551F661F771F881F991F881C991C8A
:1008C400EE1FFF1FCC1FDD1FAA1FBB1F8A149B0432
:1008D400EC05FD05CE05DF05A007B10748F08A1831
:1008E4009B08EC09FD09CE09DF09A00BB10B2160BF
:1008F4001A94E1F62EF49401AF01BE01CD01000C6F
:02090400089554
:10090600EF92FF920F931F93CF93DF930F92CDB782
:10091600DEB7182F062F7A01AE014F5F5F4F0E9498
:10092600FF0480E008C0AE014F5F5F4F602F812F4C
:100936000E94FF0481E099819923A9F32FEF36E7FE
:1009460091E0215030409040E1F700C0000008C01F
:10095600AE014F5F5F4F602F812F0E94FF0481E041
:1009660099819923A9F3F701808381E00F90DF91A4
:0C097600CF911F910F91FF90EF9008951A
:1009820041E060E081E00E94FE0141E061E081E03F
:100992000E94FE0141E062E081E00E94FE0141E02E
:1009A20064E081E00E94FE0141E063E080E00E9499
:1009B200FE0141E062E080E00E94FE012FEF89EF3C
:1009C20090E0215080409040E1F700C0000083E3B6
:1009D2000E94FC0282E30E94FC0288E20E94FC0266
:1009E20081E00E94FC028FE00E94FC028FE39CE9FE
:0C09F2000197F1F700C0000081E00895BB
:1009FE00813091F028F08230D9F0833029F130C067
:100A0E0089B390E002C0959587956A95E2F781705B
:100A1E00FA01808381E0089586B390E002C0959537
:100A2E0087956A95E2F78170FA01808381E00895D7
:100A3E0083B390E002C0959587956A95E2F7817031
:100A4E00FA01808381E0089580B390E002C095950D
:100A5E0087956A95E2F78170FA01808381E00895A7
:040A6E0080E0089587
:100A7200689401C0E894F92FF12B12F00C942D0622
:100A8200A0E0B0E0E7E4F5E00C94BC05092E059483
:100A920022F40E941A06112392F4F0E80F26FFEFC7
:100AA200E094F09400951095B094C094D094A194E1
:100AB200BF0ACF0ADF0AEF0AFF0A0F0B1F0B0E94C1
:100AC200320407FC0E941A06CDB7DEB7ECE00C94A4
:020AD200D80545
:100AD40061E080E00E9492056EEA70E080E00E948E
:100AE400ED0566E081E00E94920560EC70E080E034
:100AF4000E94ED0563E082E00E94920568EC70E0DC
:100B040080E00E94ED052FEF83EC99E021508040B6
:100B14009040E1F700C000000E945C0681E0089567
:100B2400CF936431E8F4813091F028F0823031F0D1
:100B3400833039F009C080E0C1E00BC084E1C1E03A
:100B440008C084E5C1E005C080E0C0E002C080E4E4
:100B5400C1E0C13031F4860F80580E94FC0201C00C
:080B6400C0E08C2FCF91089531
:100B6C002F923F924F925F926F927F928F929F92B1
:100B7C00AF92BF92CF92DF92EF92FF920F931F939F
:100B8C00CF93DF93CDB7DEB7CA1BDB0B0FB6F89450
:080B9C00DEBF0FBECDBF0994BE
:100BA4002A88398848885F846E847D848C849B84F9
:100BB400AA84B984C884DF80EE80FD800C811B8107
:100BC400AA81B981CE0FD11D0FB6F894DEBF0FBE36
:060BD400CDBFED01089504
:100BDA00CF92DF92EF926B01E82E06C00E94660365
:100BEA008FEFC81AD80AE80AF6018491E7FC8081D7
:0E0BFA008111F4CF81E0EF90DF90CF9008954D
:100C08000E94C10463E083E00E94570665E083E028
:100C18000E94570666E083E00E94570667E083E07B
:0C0C28000E9457060E94C10481E008955C
:100C34006095709580959095309540955095219547
:100C44003F4F4F4F5F4F6F4F7F4F8F4F9F4F0895D1
:100C5400689401C0E8948F929F92CF93DF930E948F
:0C0C64003204DF91CF919F908F90089593
:100C70000024A7FD00942A173005400550056005A3
:080C8000700580059005089540
:100C8800EC010E946B060E946A06CE010E946C0667
:060C9800CE010E94680677
:100C9E000E946A050E94D0030E94580181E00895C7
:0A0CAE0040E00E94FE0181E008957D
:0A0CB80081E00E94FC0281E0089533
:0A0CC2000E9404060E944F06FDCFB9
:040CCC000C94000084
:040CD0000E94550029
:020CD400089581
:020CD60008957F
:020CD80008957D
:00000001FF
